:100000006F00500100000000C6010000C8010000A0
:1000100000000000000000000000000000000000E0
:1000200000000000000000000000000000000000D0
:10003000120800000000000012080000000000008C
:100040001208000012080000120800001208000048
:100050001208000012080000120800001208000038
:100060001208000012080000120800001208000028
:100070001208000012080000120800001208000018
:100080001208000012080000120800001208000008
:100090001208000012080000120800000000000012
:1000A000634E050263C305042E86AA857D5515C2DD
:1000B00085466378B6006356C00006068606E36C84
:1000C000B6FE014563E4C500918D558D858205829C
:1000D000F5FA82808682C93F2E8582823305A04050
:1000E00063D70500B305B040C1B7B305B040868201
:1000F000653F3305A0408282868263C7050063495D
:1001000005005D372E858282B305B040E35B05FEB6
:100110003305A040513F3305B040828200003D438B
:100120002A876373C3029377F700BDEFADE593763B
:1001300006FF3D8ABA960CC34CC30CC74CC7410797
:10014000E36BD7FE11E28280B306C3408A069702B2
:10015000000096966780A6002307B700A306B700A5
:100160002306B700A305B7002305B700A304B70013
:100170002304B700A303B7002303B700A302B7000B
:100180002302B700A301B7002301B700A300B70003
:100190002300B700828093F5F50F93968500D58DE7
:1001A00093960501D58D61B79396270097020000BD
:1001B00096968682E78086FA9680C1171D8F3E96B6
:1001C000E374C3F8A5B701A0B707EFBE37E700E0B7
:1001D000938707083CC701A01165130181FD854580
:1001E0001305050206D222D002C002C202C402C612
:1001F00002C802CA02CCE929930700022310F100C9
:10020000371401408D473EC28A85E14713050440FB
:100210003EC44926930700042310F1008A859147C4
:10022000130504403EC4BD26F1673744014093875F
:1002300007203EC66C00B7070C00130504803ECAB9
:1002400002C8231C01006521130504808545612334
:10025000925002541301810282805111054506C457
:1002600026C022C275264D2A0D247165130505206E
:10027000B924B707002083A5870937250000130597
:1002800045A62D2D1926AA8537250000130545A75B
:100290003525993737440140930704803E859305FF
:1002A00000029523B74701409387078065D913055E
:1002B0000480A9231375F50F2380A18283C50182D1
:1002C000130504803744014093C5F5FFC205C18181
:1002D0000D23130404809305000822852D2365DD7A
:1002E00055BF311122C6371402401C4006C83707DB
:1002F000FFF893E717001CC05C404145F98F5CC0D4
:100300001C403707F7FE7D17F98F1CC01C403707CC
:10031000FCFF7D17F98F1CC05C4041777D17F98F7A
:100320005CC0B7079F001CC4FD241C4C37060200AC
:1003300093E707021CCCB717014003A70740938639
:1003400007401377F7F023A0E74003A707401367A0
:10035000070823A0E74089479CCA02C002C21C4C80
:1003600037070140A16693E717001CCC5C43D58F8B
:100370005CC31C404167B7160240D98F1CC0096797
:100380009C42F18F3EC2824785073EC0924781E77B
:100390008247E397E7FEB71702409C431397E700B5
:1003A000635A070685473EC2124785476310F70622
:1003B000B72702409843C176FD16719B98C39843B6
:1003C0001367170098C3B7170240D843D8C3D84360
:1003D000758FD8C3D843C166558FD8C39843B70625
:1003E0000001558F98C3984393166700E3DD06FE1E
:1003F000D843B7160240719BD8C3D8431367270070
:10040000D8C32147DC42B18BE39EE7FEC2403244B1
:100410005101828002C249BF371702405C4351112B
:1004200022C206C437040020B18B9146130484090C
:100430006385D700A1466384D704B7376E019387DD
:1004400007601CC0B7160240DC420840918313F7D6
:10045000F700B707002093870700BA9783C5070006
:10046000DC4293F5F50F93F707083357B50099E38E
:1004700025392A8718C0A2401244310182805C438A
:10048000B777DC02938707C06DBFB707002003A5CD
:100490008709B7157A0051119385052006C42931C3
:1004A0001375F50F2389A18093175500898F8A074B
:1004B0003E95A2400E052398A18031018280130150
:1004C00081FD22D02A84116585451305050206D2D7
:1004D0000124930700022310F100371501408D47D6
:1004E0003EC28A85E147130505403EC4652022C609
:1004F00037440140B70708006C00130504803ECA6A
:1005000002C8231C0100E522130504808545E1246F
:1005100092500254130181028280411122C426C2EA
:1005200006C6AE840144635BC402B747014013872B
:1005300007803A859305000432C0F124B747014093
:1005400013870780024675D53387840083450700EB
:10055000138507800504712C0246F1B7B24022448E
:100560009244328541018280138741801C439386E7
:1005700081823E956369D500938681E663E5A60096
:1005800008C33E858280FD57EDBFB7F7FF1F03A567
:10059000477C8280944593F7060193F2F60081C769
:1005A000DC41B3E2F20083D3050093F7F30FA5C358
:1005B00003230500611122C226C081471304800273
:1005C0009304800405473316F70033F7C300631222
:1005D000E602939527003D473317B7001347F7FF0F
:1005E00033736700B395B20033E36500639D860003
:1005F00050C985072147E397E7FC12442320650093
:10060000824421018280E39696FE10C9DDB7828084
:1006100023AAA1808280371702401C430E0593F75E
:1006200077F05D8D08C38280371702405C4351111B
:1006300022C206C4B18B91462A846385D700A146A5
:100640006382D708B7376E01938707601CC0B7165F
:100650000240DC42918313F7F700B707002093872D
:100660004702BA9783C50700DC42184093F5F50F9F
:1006700093F707083355B70099E33A85353448C0F6
:1006800008C448C4B7170240DC438D46AD83FD8BD8
:1006900013D737008A07F18BD98F13F6370113F779
:1006A000370063F4C600138747FFB707002093871E
:1006B0000701BA9783C50700C53A08C8A24012448B
:1006C000310182805C43B777DC02938707C0BDBFEE
:1006D00099C5371702401C4F5D8D08CF8280B71730
:1006E0000240984F1345F5FF798D88CF828083565D
:1006F0000501F577FD17F58F83D665001301C1FD60
:1007000022CE06D026CCD58F03D7C5002318F500FE
:100710008356C500FD779387379FF58F83D64500B5
:100720002A842EC0D58F83D68500D58F83D6A50089
:10073000D58F2316F50083574501C207C18393F770
:10074000F7CF5D8F231AE5004800F93DB747014018
:100750009387078082456314F406C2470357C40099
:10076000139517003E9542070E0541873E958C4133
:100770006359070486050D3A930540062AC02D32B9
:10078000824793144500930540063E85A132835766
:10079000C400C207C18763D807020E05930540064F
:1007A0001305250311321D89C98CC204C18023148D
:1007B000940082507244E244130141028280B247A5
:1007C00071BF8A054DBF1205930540061305250329
:1007D000E1383D89D1BF81C98357C5000967D98FE9
:1007E0002316F50082800357C500F977FD17F98FAE
:1007F000C5BF93F5F51F2312B50082800355450050
:100800001375F51F8280035505006D8D3335A000EB
:10081000828001A09701002093814108138181F615
:100820001305000A97F5FF1F9385C57D17F6FF1F77
:100830001306467D63FAC5008322050023A05500F8
:1008400011059105E3EAC5FE171500001305852D76
:1008500097F5FF1F9385057B1386018163FAC50019
:100860008322050023A0550011059105E3EAC5FE8A
:1008700013850181938581826377B500232005006C
:100880001105E36DB5FEB7220000938202887390D4
:1008900002308D427390428097F2FFFF93828276FE
:1008A00093E2320073905230EFF0BFA39702000042
:1008B0009382E29A73901234730020301301C1FDC9
:1008C0003ED02EC832CA36CC3ACE9387818022C41D
:1008D000804326C206C6AA8409C41C4C99E322851B
:1008E000D9280C4414082686228536C0852EB240AD
:1008F00022449244130141028280511122C206C453
:100900002A842316B5002317C500232005002322BF
:100910000500232405002322050623280500232A99
:100920000500232C0500214681451305C505EFF080
:100930000FFF97170000938787A05CD097170000E0
:100940009387E7A21CD497170000938727A75CD44E
:10095000971700009387E7A900D01CD8A240124443
:100960003101828097150000938545DFA9A24111CE
:100970001386F5FF22C41314160032940A0432942D
:100980000E042EC09305440726C206C66922AA8417
:1009900009CD8247232005003105232CF5FE88C4AC
:1009A000130684068145EFF08FF7B2402244268576
:1009B0009244410182801C4DADE3511106C422C214
:1009C00097070000938747FA1CD59387C1809C4303
:1009D0002324050423260504232805046314F500B5
:1009E00085471CCD2A841D2848C02285052808C4B7
:1009F00022852D2048C4484001469145FD3D0844CC
:100A00000546A545DD3D48440946C945FD358547B0
:100A10001CCCA24012443101828082804111938714
:100A2000C18022C4804326C206C61C4CAA8499E316
:100A300022855137930784048047D8437D17635636
:100A40000700984331CF9C43C5BF8316C400B1E66D
:100A5000C1778507232204062320040023220400F3
:100A6000232404005CC423280400232A0400232C2C
:100A70000400214681451305C405EFF04FEA232AFF
:100A80000402232C040223240404232604042285C4
:100A9000B24022449244410182801304840679BF0B
:100AA000914526853EC0E135824788C349FDB1475F
:100AB0009CC00144E9BF111122CA06CC26C8AA86EF
:100AC0002E8613048504814719E4E2405244C2444F
:100AD0003E8571018280044458407D1763540700AD
:100AE0000040DDB703D5C400854563F3A502039537
:100AF000E400FD55630EB5003685A6853EC63AC4B2
:100B000036C232C00296B247224792460246C98F89
:100B100093848406D9B7411126C293843500F19895
:100B200006C622C4A104B14763F9F404B14463E8E2
:100B3000B4042AC0EF00F05C13878181144382471C
:100B4000368431E41387C181184309EB3E85814522
:100B50003EC0EF00E07B23AEA18082473E85A685A4
:100B60003EC0EF00E07A7D5782476316E5063147C5
:100B700098C33E85EF00105929A0E3DA04FAB14783
:100B80001CC10145B2402244924441018280184078
:100B9000058F634F07022D466376E60018C03A942E
:100BA00004C031A058406393860223ACE1803E85A7
:100BB000EF0050551305B400130744006199B307C3
:100BC000E540E9D33E94098F18C06DBFD8C2C5B7C0
:100BD000A2864040BDB7130435007198E30285FC3E
:100BE000B305A4403E853EC025277D578247E319C3
:100BF000E5FAB5BF1C46FD171CC663DA0700184EA0
:100C000063C5E700A9476394F5006F00A07E1C420E
:100C10002E851387170018C22380B70082803111F8
:100C200022C626C406C8AA872E873284B304D600FB
:100C300063149400014531A8834504003A863E853B
:100C40003AC23EC0453FFD56050482471247E311B4
:100C5000D5FEC2403244A24451018280130181F783
:100C600022C1A6DE9307F10106C32AC032C22E8438
:100C700093F487FF11C5184D01E736C62D3BB246E8
:100C800017170000130747E26317E40E8247C043BB
:100C90000357C400218B630207101848630F070E27
:100CA00013070002A38CE4001307000323AA040027
:100CB000238DE40036CA124713065002834607000C
:100CC00099C2639AC60E92473303F7406301030249
:100CD00002459A863E86A2853AC81AC68937FD56CD
:100CE000630ED520D448324342479A96D4C88346EF
:100CF000070063850620130317007D5723A0040017
:100D000023A60400D8C023A40400A381040423ACB8
:100D10000404834503001546171500001305C5DCC0
:100D20001AC2EF00703C124394401307130051E5C0
:100D300013F6060109C613060002A381C40413F6C4
:100D4000860009C61306B002A381C40483450300CC
:100D50001306A0026380C508D4441A87814525453F
:100D60000346070013031700130606FD6379C50A3F
:100D7000B5C9D4C485A8171700001307E7D46315B5
:100D8000E4008247804729B7171700001307C7CF31
:100D9000E310E4F08247C047E5BD0245A28536C6B0
:100DA000B127B246E30E05EE7D559A400A44F6544B
:100DB000130181088280050711B71716000013067A
:100DC000A6D23306C54005453315C500C98E94C06B
:100DD0003A8381B752469305460010422ECA6349B2
:100DE0000602D0C4034607009306E0026313D6064A
:100DF000034617009306A002631ED602D2460907D7
:100E000013864600944232CA63C40602D4C091A03D
:100E10003306C04093E62600D0C494C0E1B71397D0
:100E2000260036970607B306C70085451A870DBF0B
:100E3000FD56E9BF050723A20400814581462545EB
:100E40000346070013031700130606FD637CC5065F
:100E5000D5FD834507000D4617150000130545C94C
:100E60003AC2EF007028124711CD97160000938602
:100E700026C8158D93060004B396A6008840050782
:100E8000558D88C08345070093071700194617152D
:100E90000000130525C63EC2238CB400EF00D02409
:100EA00035C517F7FFFF1307E71505EB94405247C9
:100EB00093F606108DC211073ACAD848A2473E974A
:100EC000D8C8D5BB1397260036970607B306C700C8
:100ED00085451A87B5B72107C5B702455808970653
:100EE0000000938606D42286A68597000000E700BE
:100EF00000002AC4A2477D57E391E7FC0357C400D2
:100F000013770704E31207EAC84845B502455808B5
:100F1000970600009386E6D02286A685052AD1BFD3
:100F2000011126CA3283B6849045944922CC06CE5C
:100F30002A84AE8763D3C600B2862320D30003C6BB
:100F4000370401C685062320D300944393F6060296
:100F500091C68326030089062320D30083A20700BD
:100F60009383970193F2620063830206904383C6E2
:100F7000370413760602B336D00041EA13863704ED
:100F8000A68522851AC43EC23AC00297FD56630860
:100F9000D506924722431145944303260300CC47CC
:100FA000998A014302476397A6003383C540635380
:100FB000030001439447904B6354D600918E3693BF
:100FC0008142E9076312530601451DA88502D447F3
:100FD00003260300918EE3DBD2F885461E86A685A4
:100FE00022851AC83EC616C41EC23AC00297FD56D4
:100FF00002479243A242B2474243E319D5FC7D55D2
:10100000F2406244D24405618280B385D700130563
:101010000003A381A50483C55704138616003E96DA
:101020008906A301B60499BF85463E86A68522851A
:1010300016C61AC43EC23AC00297FD56E301D5FC5B
:10104000B2422243924785020247ADBF130141FDE0
:1010500022D206D426D032C203C6850136C42AC0A5
:10106000930690062E8493823504630DD60263E2C4
:10107000C606930680056302D61A63EDC600630BAD
:10108000062293063004630DD60A93042404230138
:10109000C404C1A0930630066304D60A9306400632
:1010A000E315D6FE1440084313F6060893054500E1
:1010B0005DC214410CC363D806001307D002B30607
:1010C000D040A301E40417160000130626A3294705
:1010D00065A893060007630ED61663E5C60293065D
:1010E000E0066305D61A9306F006E310D6FA0C4024
:1010F000144313F30508138546006306030608C36B
:10110000944285A893065007E303D6FE9306800712
:101110006305D61493063007E319D6F614431386F5
:10112000460010C38442D04181452685EF00C07B34
:1011300019C1058D48C0584018C8A301040475A8FA
:101140001443930424041386460010C398422301D9
:10115000E4040547D5B713F6060414410CC321DE99
:10116000C206C18689BF93F5050408C3D1D983D6C9
:1011700006001307F0066303E610171600001306B7
:10118000E6972947A30104044C400CC463C505003D
:1011900008406D9908C099E296848DCD9684BA85F1
:1011A000368516CC32CA3AC836C6EFE0BFF2524690
:1011B0004247B246329583450500FD1436852380AB
:1011C000B400BA85EFE05FEEB24642475246E242D3
:1011D00063FCE60AA146631ED7001840058B11CBBD
:1011E000544018486347D70013070003A38FE4FE59
:1011F000FD14B382924023285400224792460245B0
:101200007008A285313B7D57631AE50A7D55A250CF
:10121000125482541301C1028280A382C50417169E
:1012200000001306A68D0C40084313F30508144173
:101230001105630D030208C313F7150001C793E5F9
:1012400005020CC041479DFE0C4093F5F5FD0CC016
:1012500015BF944193E6060294C193068007A3024A
:10126000D404171600001306A68A75BF13F30504ED
:1012700008C3E30303FCC206C1827DBF171600004A
:101280001306C6872147FDBDAA8611BF90411443AE
:10129000CC4913730608138546006306030008C390
:1012A00098420CC301A808C313760604984275DA65
:1012B0002310B70023280400968481B71448924570
:1012C0000245A247268682977D57E301E5F4184040
:1012D000098B1DEB72474844E35BE5F23A8505BF95
:1012E00092450245A24785461A863AC81AC6829791
:1012F000FD56E30DD5F0424732430507544472468C
:10130000918EE34FD7FCF9B7014713039401FDB762
:10131000511122C22A842E8523A2018206C4EFF035
:10132000AFA4FD576317F500938741829C4391C397
:101330001CC0A240124431018280511122C22E846D
:101340008395E50006C49525634905007C48AA9766
:101350007CC8A2401244310182808357C4007D774B
:101360007D17F98F2316F400EDB783D7C50031112F
:1013700022C626C406C893F70710AA842E84328397
:10138000B68291CB8395E50036C232C089460146CC
:101390003D21924202438357C4007D777D17F98F28
:1013A0002316F4008315E4003244C2402685A2448B
:1013B00096861A86510121A2511122C22E8483954C
:1013C000E50006C4ED2EFD570357C400631BF5006E
:1013D000FD77FD17F98F2316F400A2401244310166
:1013E00082808567D98F2316F40068C8FDB783957E
:1013F000E50029A4311122C626C406C8AA87AE84F6
:10140000328419C5184D09E72AC0EFF0CFDA8247B8
:101410001707000013074769631BE406C043184C15
:1014200018C40357C400218B59C3184849C318482E
:10143000084093F6F40F93F4F40F198D5848634A5B
:10144000E5003E85A28536C23EC0392682479246D7
:101450002DE5184405057D1718C41840130617001C
:1014600010C02300D70058486309A7000357C400E1
:10147000058B01CB29476396E400A2853E85E92CC4
:101480000DEDC24032442685A244510182801707E7
:101490000000130767636314E400804749B7170728
:1014A00000001307675EE31CE4F6C0478DBF3E856E
:1014B000A2853EC0252882473DD9FD54D9B7511198
:1014C00022C22A842E85B285368623A2018206C4D2
:1014D000EFF0AF84FD576317F500938741829C437B
:1014E00091C31CC0A24012443101828041119387F4
:1014F000818026C2844322C406C6AA862E8481C85F
:101500009C4C91E72AC02685EFF0EFCA82469707E8
:10151000000093876759631AF402C0400317C400A0
:1015200093170701C18313F6870035EE13F6070101
:101530000DEEA5479CC2136707042316E4007D55F2
:10154000B240224492444101828097070000938771
:10155000A7576314F4008044D1B79707000093871E
:10156000A752E31DF4FAC04455BF918B9DC74C5858
:1015700099C9930744046386F500368536C0612611
:101580008246232A04028357C4002322040093F7CF
:10159000B7FD2316F4001C481CC08357C40093E712
:1015A00087002316F4001C4881EF8357C4001307FB
:1015B000002093F707286385E700A2853685792404
:1015C0008357C40013F7170005C75C4823240400A1
:1015D000B307F0401CCC1C480145BDF38317C40081
:1015E00013F7070831DF93E707042316F40081BFE0
:1015F000898B014791E3584818C4F1BF511122C2A9
:101600002A842E8523A2018206C43929FD57631737
:10161000F500938741829C4391C31CC0A2401244B1
:101620003101828083D6C500311122C606C826C486
:1016300013F78600AA872E8469EFD841634BE00038
:10164000B8416348E0000145C2403244A244510120
:10165000828058546DDB84431396360123A0070023
:10166000635E060670480357C400118B19C75840C3
:10167000198E585819C33840198E58540C50814649
:101680003E853EC002977D578356C4008247631D46
:10169000E500904375476368C70637074020050794
:1016A0003357C700058B25C318482322040018C0F0
:1016B00013973601635807007D576314E50098437C
:1016C00011E368C84C5884C3BDDD13074404638428
:1016D000E5003E850D2C232A0402B5B70C500146C7
:1016E0003E8585463EC002977D572A868247E31C89
:1016F000E5F698432DDBF5466305D700D94663131D
:10170000D70484C389B793E606042316D4007D5515
:1017100025BF98490DDB84418D8A98C1998C01467B
:1017200091E2D04910C4E35090F2032384020C509C
:101730003A863E85A6863AC23EC002938247124749
:101740006349A0008357C40093E707042316F400FD
:101750007DBF2A97898CC1BF9C49A5C3411122C472
:1017600006C62A8419C51C4D89E72EC0EFF0AFA428
:1017700082459707000093872733639BF5004C4011
:101780008397C50095C722852244B240410159BDC7
:1017900097070000938747336394F5000C44CDB757
:1017A000970700009387472EE39CF5FC4C44C9BF84
:1017B000B24022440145410182800145828051119D
:1017C00022C22A842E85B285368623A2018206C4CF
:1017D000B52CFD576317F500938741829C4391C355
:1017E0001CC0A240124431018280AE878395E5007F
:1017F0005971A6D286D6A2D4B28463DC050083D701
:10180000C70023A0060093F7070885EB9307004065
:101810003DA01304F1006198228636C23EC0652ABD
:1018200082479246E34D05FC5840BD67F98F7977B2
:10183000BA9793B717009CC2D1BF93070004B65064
:1018400026549CC0014596546561828003D7C5002B
:10185000211122C806CA26C6098B2E8401CF930700
:1018600074041CC01CC885475CC8D2404244B244C2
:101870006101828034005000AA84853F92452AC0CD
:101880002685EFF04FA901ED8317C40013F7072059
:1018900069FFF19B93E727002316F400C9B717F7F8
:1018A000FFFF1307670C98D40357C40008C008C88B
:1018B000136707082316E400124758C8224709CFC8
:1018C0008315E40026852D2A01C98357C400F19BA6
:1018D00093E717002316F4008357C4000247B3644C
:1018E000F7002316940051B793F5F50F2A96631469
:1018F000C5000145828083470500E38DB7FE0505DD
:10190000FDB782808280CDC183A7C5FF511122C25D
:1019100006C426C01384C5FF63D307003E94AA847F
:10192000CD37938781819C4399EB2322040023AC1C
:1019300081801244A240268582443101E1B7637E52
:10194000F40014403307D4006396E7009843DC4367
:10195000369718C05CC0E1BFBA87D84319C3E37D8E
:10196000E4FE94433386D700631F86001040B2968E
:1019700094C33386D700E31EC7FA10435843B29688
:1019800094C3D8C37DB76375C400B1479CC055B735
:101990001040B306C4006316D70014435843B296F0
:1019A00014C058C0C0C371B78280511122C22A84AA
:1019B0002E85B285368623A2018206C47128FD5782
:1019C0006317F500938741829C4391C31CC0A240DA
:1019D000124431018280511122C22A842E85B2859F
:1019E00023A2018206C4B920FD576317F50093872F
:1019F00041829C4391C31CC0A240124431018280A9
:101A0000511122C22A842E8523A2018206C40D28E8
:101A1000FD576317F500938741829C4391C31CC017
:101A2000A2401244310182809307800523A2F182F3
:101A30007D5582809307800523A2F1827D558280A7
:101A40009307800523A2F1820145828093078005D8
:101A500023A2F1827D5582809307800523A2F18223
:101A60007D55828053797374656D436C6B3A256440
:101A70000D0A00004368697049443A253038780DF2
:101A80000A0000000000000000000000000000004C
:101A90000000000000000000000000000000000046
:101AA0000000000000000000000000000000000036
:101AB0000000000000000000000000000000000026
:101AC0000000000000000000000000000000000016
:101AD0000000000000000000000000000000000006
:101AE00000000000232D302B20000000686C4C000B
:101AF0006566674546470000303132333435363746
:101B00003839414243444546000000003031323309
:101B10003435363738396162636465660000000029
:101B2000010203040506070801020304050607086D
:101B30000204060804080C10081018201020304079
:101B40002040608001020304050607080102030427
:101B50000506070800000000A41A0000C41A0000CF
:101B6000841A0000000000000000000000000000D7
:101B70000000000000000000000000000000000065
:101B80000000000000000000000000000000000055
:101B90000000000000000000000000000000000045
:101BA0000000000000000000000000000000000035
:101BB0000000000000000000006CDC02C0000020FB
:081BC000340000203400002075
:00000001FF
